:100000000C9463000C948B000C948B000C94810571
:100010000C9481050C9481050C948B000C948B003E
:100020000C948B000C948B000C948B000C948B0024
:100030000C948B000C948B000C948B000C948B0014
:100040000C94DF040C948B000C944F050C94290540
:100050000C948B000C948B000C948B000C948B00F4
:100060000C948B000C948B000000000024002700EF
:100070002A0000000008000201000003040700003D
:1000800000000000000000000000230026002900FE
:1000900000000000250028002B00040404040404D0
:1000A0000404020202020202030303030303010227
:1000B00004081020408001020408102001020408F6
:1000C00010207C09600911241FBECFEFD8E0DEBFED
:1000D000CDBF22E0A4E7B1E001C01D92A938B2076C
:1000E000E1F711E0A0E0B1E0E8E2F2E202C0059041
:1000F0000D92A437B107D9F710E0C2E6D0E004C0F2
:100100002197FE010E94C00BC136D107C9F70E949A
:1001100003080C9407110C940000CF92DF92EF9229
:10012000FF920F931F93CF93DF936C017A018B01A2
:10013000C0E0D0E0CE15DF0581F0D8016D918D01D2
:10014000D601ED91FC910190F081E02DC601099559
:10015000892B11F02196EECF7E01C701DF91CF915F
:100160001F910F91FF90EF90DF90CF900895FC01C9
:10017000538D448D252F30E0842F90E0821B930B0C
:10018000541710F0CF96089501970895FC01918DB2
:10019000828D981761F0828DDF01A80FB11D5D96E9
:1001A0008C91928D9F5F9F73928F90E008958FEF57
:1001B0009FEF0895FC01918D828D981731F0828D0B
:1001C000E80FF11D858D90E008958FEF9FEF089562
:1001D000FC01918D228D892F90E0805C9F4F821BC6
:1001E00091098F739927089583EC91E00E94E800AC
:1001F00021E0892B09F420E0822F0895FC01848DF1
:10020000DF01A80FB11DA35ABF4F2C91848D90E040
:1002100001968F739927848FA689B7892C93A0891B
:10022000B1898C91837080648C93938D848D9813A5
:1002300006C00288F389E02D80818F7D8083089538
:10024000EF92FF920F931F93CF93DF93EC0181E026
:10025000888F9B8D8C8D981305C0E889F9898081E2
:1002600085FD26C0F62E0B8D10E00F5F1F4F0F731C
:100270001127E02E8C8DE8120CC00FB607FCFACFC8
:10028000E889F989808185FFF5CFCE010E94FE00C3
:10029000F1CF8B8DFE01E80FF11DE35AFF4FF08285
:1002A0009FB7F8940B8FEA89FB89808180620AC02E
:1002B0009FB7F894EE89FF896083E889F989808186
:1002C0008370806480839FBF81E090E0DF91CF9155
:1002D0001F910F91FF90EF900895CF93DF93EC0162
:1002E000888D8823C9F0EA89FB89808185FD05C056
:1002F000A889B9898C9186FD0FC00FB607FCF5CF90
:10030000808185FFF2CFA889B9898C9185FFEDCFD7
:10031000CE010E94FE00E7CFDF91CF91089580E0EB
:1003200090E0892B29F00E94F40081110C940000C8
:1003300008952091B6013091B7012817390771F45B
:100340009091B4018091B501981741F0E091B4010A
:10035000F0E0EC58FE4F808190E008958FEF9FEF22
:10036000089508951F93CF93DF93DC015C968D91E0
:100370009C915D97009739F421E030E013963C930F
:100380002E9312973BC05196ED91FC915297509647
:100390002C915097322F30951FB75E964C915E97F7
:1003A000742F727041FD6095F8944081772311F0AD
:1003B000422B01C043234083EC012197F1F748E031
:1003C000508160FF02C0522B01C053235083EC01C7
:1003D0002197F1F76695415099F78081772319F0BD
:1003E0008323808302C0282B20831FBF5C968D91BE
:1003F0009C915D970197F1F781E090E0DF91CF91BB
:100400001F9108952091B6013091B701281739073F
:1004100071F48091B5012091B40190E0805C9F4F10
:10042000821B910960E470E00E94570B089580E000
:1004300090E008952091B6013091B701281739074F
:10044000B9F49091B4018091B501981789F0E091C9
:10045000B401F0E0EC58FE4F80812091B40130E00F
:100460002F5F3F4F2F7333272093B40190E00895FF
:100470008FEF9FEF0895089580E090E008950E9427
:10048000180ECF93DF93FC01EC012E9683858F939A
:1004900082858F9385858F9384858F9385818F93B4
:1004A00084818F9384E491E09F938F93DF93CF9324
:1004B0000E941D0E8DB79EB70A960FB6F8949EBF88
:1004C0000FBE8DBFCE01DF91CF91089590E0FC016A
:1004D000EE58FF4F2491FC01E255FF4F3491FC018F
:1004E000E656FF4FE491EE2309F43CC0222339F194
:1004F000233091F038F42130A9F0223001F584B591
:100500008F7D12C0273091F02830A1F02430B9F44B
:10051000809180008F7D03C0809180008F778093D1
:1005200080000DC084B58F7784BD09C08091B00074
:100530008F7703C08091B0008F7D8093B000F0E092
:10054000EE0FFF1FE057FF4FA591B4919FB7F894AE
:10055000611104C08C913095382302C0EC913E2B80
:100560003C939FBF0895CF93DF93EC0160E08E81B1
:100570000E94660261E08E810E94660260E08E81C8
:100580000E9466028BE891E00197F1F7DF91CF912D
:100590000895CF93DF9390E0FC01E255FF4F249143
:1005A000FC01E656FF4F8491882361F190E0880FAB
:1005B000991FFC01E859FF4FC591D491FC01E05708
:1005C000FF4FA591B491611109C09FB7F89488813C
:1005D000209582238883EC912E230BC0623061F436
:1005E0009FB7F8948881322F309583238883EC91CC
:1005F0002E2B2C939FBF06C08FB7F894E8812E2B2B
:1006000028838FBFDF91CF9108951F93CF93DF93FE
:10061000182FEB0161E00E94C902209711F460E0FD
:1006200004C0CF3FD10539F461E0812FDF91CF9134
:100630001F910C946602E12FF0E0EE58FF4FE49119
:10064000E330F9F048F4E130B9F0E230A1F584B5D7
:10065000806284BDC8BD34C0E730E9F0E83019F1EC
:10066000E43049F580918000806280938000D093CF
:100670008B00C0938A0024C084B5806884BDC7BD48
:100680001FC080918000806880938000D093890093
:10069000C093880015C08091B00080688093B0003E
:1006A000C093B3000DC08091B00080628093B00011
:1006B000C093B40005C0C038D1050CF0B5CFAFCFA2
:1006C000DF91CF911F9108950F931F93CF93DF93E5
:1006D000EC018B0161E088810E94660260E08A8102
:1006E0000E946602B8010F3F110519F014F06FEF78
:1006F00070E077FF02C060E070E08C81DF91CF9105
:100700001F910F910C9405030F931F93CF93DF93C9
:10071000EC018B0160E088810E94660261E08A81C1
:100720000E946602B8010F3F110519F014F06FEF37
:1007300070E077FF02C060E070E08C81DF91CF91C4
:100740001F910F910C940503CF93DF93EC0160E0B0
:1007500088810E94660260E08A810E94660260E0F1
:1007600070E08C81DF91CF910C940503EF92FF92A2
:100770000F931F93CF93DF93EC018A819B81892B89
:1007800009F4EAC02FB7F8948091BF019091C0019D
:10079000A091C101B091C2012FBF2E813F812115CF
:1007A0003105F9F49F838E838E01085B1F4FF8019A
:1007B00080819181892B09F4FBC07E01F0E3EF0E6B
:1007C000F11C66E970E0CE01CC960E94640366E9F4
:1007D00070E0C70142960E946403F8011182108202
:1007E000E7C0821B930B8834FDE09F0794F488399F
:1007F00028E092070CF063C08835E2E09E070CF415
:10080000D7C08E01085B1F4F803B9440B4F5F801C0
:1008100019C0803321E192070CF470C08933E8E1FC
:100820009E070CF0C5C04C855D852A853B85421727
:1008300053070CF488C0803E95410CF084C0FE0143
:10084000E85BFF4F80819181049709F4B1C08E016C
:10085000005D1F4F68EC70E0CE01CC960E946403EF
:1008600068EC70E0C80142960E948403C85BDF4FC9
:1008700084E090E0998388839BC0F8018081918116
:10088000029771F0CE01CC960E94A403CE01C096CF
:1008900042960E94A40382E090E0F8019183808355
:1008A0008C859D85892B09F083C06EE170E0CE01B7
:1008B000865B9F4F0E942B079D878C8779C08E0196
:1008C000085B1F4FF80180819181039709F470C084
:1008D0007E01F0E3EF0EF11C68EC70E0CE01CC96E7
:1008E0000E94840368EC70E0C70142960E94640392
:1008F00083E090E0F801918380835AC08E01085B09
:100900001F4FF80180819181029771F0CE01CC9642
:100910000E94A403CE01C09642960E94A40382E0E6
:1009200090E0F801918380838A859B85892B09F06B
:100930003FC06EE170E0CE01865B9F4F0E942B07A7
:100940009B878A8735C01D861C861B861A861B825C
:100950001A821F821E822CC08E01085B1F4FF80175
:1009600080819181019791F066E970E0CE01CC968B
:100970000E94840366E970E0CE01C09642960E9410
:10098000840381E090E0F801918380836FE070E060
:10099000CE01865B9F4F0E942B079D838C83288509
:1009A00039858217930724F481E090E09B838A8342
:1009B000DF91CF911F910F91FF90EF9008951F92BB
:1009C0000F920FB60F9211242F933F938F939F9303
:1009D000AF93BF938091BF019091C001A091C101DD
:1009E000B091C2013091BE0123E0230F2D3720F4D6
:1009F0000196A11DB11D05C026E8230F0296A11D79
:100A0000B11D2093BE018093BF019093C001A093BC
:100A1000C101B093C2018091BA019091BB01A09134
:100A2000BC01B091BD010196A11DB11D8093BA0119
:100A30009093BB01A093BC01B093BD01BF91AF9156
:100A40009F918F913F912F910F900FBE0F901F900C
:100A500018951F920F920FB60F9211242F933F9368
:100A60004F935F936F937F938F939F93AF93BF93B6
:100A7000EF93FF9383EC91E00E94FE00FF91EF91D2
:100A8000BF91AF919F918F917F916F915F914F91A6
:100A90003F912F910F900FBE0F901F9018951F92AE
:100AA0000F920FB60F9211242F938F939F93EF9372
:100AB000FF93E091D301F091D4018081E091D901BD
:100AC000F091DA0182FD12C090818091DC018F5F8C
:100AD0008F732091DD01821751F0E091DC01F0E08D
:100AE000ED53FE4F958F8093DC0101C08081FF9113
:100AF000EF919F918F912F910F900FBE0F901F90AC
:100B000018951F920F920FB60F9211242F933F93B7
:100B10004F935F936F937F938F939F93AF93BF9305
:100B2000EF93FF93E091B601F091B701309709F48C
:100B300051C0968DA685B785858591FF04C09C918F
:100B4000892329F447C09C91892309F043C0A389D4
:100B5000B4899C918589809589238C93868997890E
:100B60000197F1F7608D718DA685B785558538E0C1
:100B700020E0CB010197F1F7822F90E095958795C2
:100B8000282F4C91452309F02068315091F7868D2C
:100B900081FD20958091B50190E001968F73992792
:100BA0003091B401381749F0A091B501B0E0AC58CC
:100BB000BE4F2C938093B50103C0868D8160868FD4
:100BC000828D938D0197F1F7A389B4899C918589D2
:100BD000892B8C93FF91EF91BF91AF919F918F9152
:100BE0007F916F915F914F913F912F910F900FBE29
:100BF0000F901F901895CF92DF92EF92FF920F9374
:100C00001F93CF93DF936C017C0187E0E80EF11C0A
:100C1000C0E0D0E0062F10E0B8010C2E02C07595A0
:100C200067950A94E2F76170F70181917F010E9454
:100C300066022196C430D10579F7C601DF91CF91C4
:100C40001F910F91FF90EF90DF90CF900C94B30223
:100C5000CF92DF92EF92FF920F931F93CF93DF9388
:100C6000EC01F62E642F8C810E9466028D818F3FED
:100C700019F060E00E9466028F850F2D10E084FF5E
:100C800025C06E0187E0C80ED11CE12CF12CB80103
:100C90000E2C02C0759567950A94E2F76170F60113
:100CA00081916F010E946602FFEFEF1AFF0A88E050
:100CB000E816F10461F7CE01DF91CF911F910F91FA
:100CC000FF90EF90DF90CF900C94B302B80184E0D6
:100CD000759567958A95E1F7CE010E94FB056F2D0A
:100CE000CE01DF91CF911F910F91FF90EF90DF9098
:100CF000CF900C94FB0541E00E94280681E090E033
:100D00000895EF92FF920F931F93CF93DF93EC011F
:100D1000623018F08F8588608F876B8B1C8A80E427
:100D20008D8B80E18E8B80E58F8B61E08C810E94C2
:100D3000C9028D818F3F19F061E00E94C90261E014
:100D40008E810E94C9027E0187E0E80EF11C00E05E
:100D500010E08F8584FD03C084E090E002C088E04D
:100D600090E0081719074CF461E0F70181917F01C9
:100D70000E94C9020F5F1F4FECCF8BE39DE00197EC
:100D8000F1F760E08C810E94660260E08E810E9433
:100D900066028D818F3F19F060E00E9466026F85C8
:100DA00064FD1DC063E0CE010E94FB050BE416E468
:100DB000C8010197F1F763E0CE010E94FB05C8016D
:100DC0000197F1F763E0CE010E94FB0583E592E015
:100DD0000197F1F762E0CE010E94FB0519C0606245
:100DE00040E0CE010E9428068BE496E40197F1F7DB
:100DF0006F85606240E0CE010E94280683E592E0A4
:100E00000197F1F76F85606240E0CE010E942806ED
:100E10006F85606240E0CE010E94280684E0888BE6
:100E200040E06CE0CE010E94280640E061E0CE0187
:100E30000E9428068BE39FE10197F1F782E0898BFE
:100E400040E066E0CE01DF91CF911F910F91FF90BE
:100E5000EF900C9428064F925F926F927F928F9240
:100E60009F92AF92BF92CF92DF92EF92FF920F9339
:100E70001F93CF93DF937C01EB01C12CD12C412C2C
:100E8000512C320193E0892E912C23E2A22EB12C19
:100E9000CC16DD060CF046C060E0F70180810E94B0
:100EA0006602C4010197F1F761E0F70180810E94B9
:100EB0006602C5010197F1F760E0F70180810E94A9
:100EC0006602F701828193819927FC01E255FF4F69
:100ED0006491FC01E656FF4FE491F0E0EE0FFF1F36
:100EE000EA57FF4F8591949100E412E42FE030E03F
:100EF000462F0E94BE07611571058105910539F0E5
:100F0000DC01CB010196A11DB11DBF7003C080E0C3
:100F100090E0DC01480E591E6A1E7B1EFFEFCF1ABF
:100F2000DF0AB6CF9E01DD0F440B550BC301B201A2
:100F30000E946B0BCA01B9010E94FE0B26E933E443
:100F40004BE05DE30E94620C20E030E040E05FE3B4
:100F50000E94620C0E94C60BCB01DF91CF911F91C2
:100F60000F91FF90EF90DF90CF90BF90AF909F9048
:100F70008F907F906F905F904F900895CF92DF9207
:100F8000EF92FF920F931F93E82FF92F05C00150A6
:100F900011092109310961F1908196239417B9F360
:100FA00005C0015011092109310911F190819623E1
:100FB0009413F7CFC12CD12CE12CF12C0AC08FEF68
:100FC000C81AD80AE80AF80A0C151D052E053F05AF
:100FD00079F080818623841791F36C2D7D2D8E2DE1
:100FE0009F2D1F910F91FF90EF90DF90CF9008956C
:100FF00060E070E080E090E01F910F91FF90EF9033
:10100000DF90CF900895789484B5826084BD84B5D4
:10101000816084BD85B5826085BD85B5816085BDF3
:1010200080916E00816080936E00109281008091AB
:101030008100826080938100809181008160809333
:101040008100809180008160809380008091B10058
:1010500084608093B1008091B00081608093B00083
:1010600080917A00846080937A0080917A00826017
:1010700080937A0080917A00816080937A008091D9
:101080007A00806880937A001092C10010927B02EF
:1010900010927A02109279021092780210927702DE
:1010A0001092760285E690E090937D0280937C0218
:1010B00090916C02963108F058C021E230E03093F4
:1010C00077022093760223E630E030937902209372
:1010D000780222E430E030937B0220937A02409140
:1010E0006800983058F031E09E3008F430E021E09C
:1010F000822F01C0880F3A95EAF701C084E0842B63
:1011000080936800983038F09E3040F0963148F077
:1011100020E030E008C02DE630E005C02BE630E0EE
:1011200002C02CE630E030937402209373029830B2
:1011300030F481E001C0880F9A95EAF70EC0292F9C
:1011400030E09E3018F42850310902C02E50310989
:1011500081E001C0880F2A95EAF78093750280919B
:101160007C0290917D020197F1F780917A02909133
:101170007B02892B49F1E091B601F091B70182E041
:10118000E036F80709F1309739F0A389B4899C91CA
:101190008589809589238C9380917E028E7F8093B0
:1011A0007E021092B5011092B40180E692E0909315
:1011B000B7018093B601E0917302F09174029081BF
:1011C00080917502892B8083E091D301F091D40145
:1011D00082E08083E091CF01F091D0011082E09114
:1011E000D101F091D2018FEC80831092DB01E0916C
:1011F000D701F091D80186E08083E091D501F0918C
:10120000D601808180618083E091D501F091D60183
:10121000808188608083E091D501F091D601808142
:1012200080688083E091D501F091D60180818F7D27
:1012300080830BE31FE180E692E00E940202892B8B
:1012400061F140E061E080917F02909180020E9414
:101250002806C8010197F1F780E692E00E94020299
:10126000892BD9F080E692E00E941A02C82F809361
:10127000B8019093B901682F83EC91E00E9420019E
:1012800080917F0290918002DC01ED91FC910190B0
:10129000F081E02D6C2F0995DFCF83EC91E00E9467
:1012A000E800892B51F083EC91E00E94C600682F82
:1012B00080E692E00E94B201F0CF0E948F01BBCF86
:1012C00082E291E090936102809360028091B60186
:1012D0009091B7018056924071F4E0917302F091C1
:1012E0007402908180917502809589238083109289
:1012F000B7011092B60108956F927F928F929F92DC
:10130000AF92BF92CF92DF92EF92FF920F931F9313
:10131000CF93DF931092C6011092C50198EE892EEB
:1013200093E0992EA12CB12C8092C7019092C80114
:10133000A092C901B092CA0180E191E09093C401EA
:101340008093C30185EC90E09093D0018093CF010E
:1013500084EC90E09093D2018093D10180EC90E0F6
:101360009093D4018093D30181EC90E09093D601C7
:101370008093D50182EC90E09093D8018093D701BF
:1013800086EC90E09093DA018093D9011092DC0111
:101390001092DD011092DE011092DF0161E089E020
:1013A0000E94C90260E08AE00E94C90229E0C22EC0
:1013B000D12CD0928202C09281023AE0632E712C2D
:1013C000709284026092830288E190E00E94F70CA0
:1013D000EC011B821A820CE311E0198308838DE073
:1013E0008C838FEF8D838CE08E8348E0F42EFF8218
:1013F00087E0888784E0898782E08A871B861C864D
:101400001D861E861F8661E0CE010E948106D09354
:101410008002C0937F0288E390E00E94F70C2A814B
:101420003B81DC0113963C932E93129711961C93EB
:101430000E932C8114962C9314972D8115962C9332
:1014400015972E8116962C931697FE0137961796B0
:1014500001900D92FA94E1F72F85FC0127872889E6
:10146000208B2989218B2A89228B2B89238B4C89DC
:101470005D896E897F89448B558B668B778B62E0A3
:101480000E94810680E190E00E94F70C8C01FC0133
:101490001186108686E0E6E0F1E0D8011A96019008
:1014A0000D928A95E1F78AE190E00E94F70CEC0139
:1014B00061E08EE00E94C90261E08FE00E94C902F3
:1014C00061E080E10E94C90261E081E10E94C902FD
:1014D00061E086E00E94C90261E085E00E94C902E5
:1014E0006EE070E0798368834FE050E05B834A836D
:1014F00020E130E03D832C8381E190E09F838E8367
:101500007D876C875F874E8746E050E0598B488B1C
:101510003B8B2A8B9D8B8C8B85E090E09F8B8E8BF9
:1015200082E090E0998F888FD8011596DC93CE9356
:10153000149784E090E00E94F70C7C0161E089E060
:101540000E94C90260E08AE00E94C902F701D182CC
:10155000C08273826282D801ED92FC928EE490E0A8
:101560000E94F70C24E331E0FC01318320831382D5
:101570001282158214821782168229E130E03187A7
:10158000208713861286158614862AE1FE01DC0167
:10159000D09601900D922A95E1F7FC01E65BFF4F92
:1015A000D7014D915D916D917C9140835183628310
:1015B0007383F8019383828360E082E10E94C90211
:1015C000109263021092620280926402909265020D
:1015D000A0926602B092670282E291E0909361026B
:1015E0008093600210927702109276021092790234
:1015F0001092780210927B0210927A0210927D0271
:1016000010927C0260917E026E7F6D7F60937E02FD
:101610006695617081E068278BE00E94660261E058
:101620008BE00E94C902E9EBF0E0E491E0937002E4
:10163000E5EAF0E0E491F0E0EE0FFF1FE057FF4F26
:1016400085919491909372028093710260E08AE098
:101650000E94C90280917E0281FD04C061E08AE09F
:101660000E9466028AE080936C02E8EBF0E0E4916D
:10167000E0936D02E4EAF0E0E491F0E0EE0FFF1F8A
:10168000EA57FF4F8591949190936F0280936E0279
:10169000DF91CF911F910F91FF90EF90DF90CF904E
:1016A000BF90AF909F908F907F906F90089597FB21
:1016B000072E16F4009407D077FD09D00E948A0BFC
:1016C00007FC05D03EF4909581959F4F0895709545
:1016D00061957F4F0895052E97FB1EF400940E949C
:1016E000820B57FD07D00E949E0B07FC03D04EF4DF
:1016F0000C94820B50954095309521953F4F4F4F5C
:101700005F4F089590958095709561957F4F8F4FAD
:101710009F4F0895AA1BBB1B51E107C0AA1FBB1F07
:10172000A617B70710F0A61BB70B881F991F5A956D
:10173000A9F780959095BC01CD010895A1E21A2EDC
:10174000AA1BBB1BFD010DC0AA1FBB1FEE1FFF1F65
:10175000A217B307E407F50720F0A21BB30BE40BB5
:10176000F50B661F771F881F991F1A9469F76095FC
:101770007095809590959B01AC01BD01CF010895B6
:10178000EE0FFF1F0590F491E02D09940E94CD0B00
:101790006894B1110C945C0C08950E94410C88F07F
:1017A0009F5798F0B92F9927B751B0F0E1F0660F25
:1017B000771F881F991F1AF0BA95C9F714C0B13066
:1017C00091F00E945B0CB1E008950C945B0C672FC4
:1017D000782F8827B85F39F0B93FCCF38695779595
:1017E0006795B395D9F73EF490958095709561957E
:1017F0007F4F8F4F9F4F0895E89409C097FB3EF4A9
:1018000090958095709561957F4F8F4F9F4F99234D
:10181000A9F0F92F96E9BB279395F69587957795CB
:101820006795B795F111F8CFFAF4BB0F11F460FF8B
:101830001BC06F5F7F4F8F4F9F4F16C0882311F0E3
:1018400096E911C0772321F09EE8872F762F05C0F7
:10185000662371F096E8862F70E060E02AF09A9592
:10186000660F771F881FDAF7880F9695879597F987
:10187000089557FD9058440F551F59F05F3F71F080
:101880004795880F97FB991F61F09F3F79F08795E7
:101890000895121613061406551FF2CF4695F1DF70
:1018A00008C0161617061806991FF1CF8695710500
:1018B000610508940895E894BB2766277727CB0134
:1018C00097F908950E94750C0C94E60C0E94D80CB0
:1018D00038F00E94DF0C20F0952311F00C94CF0C0F
:1018E0000C94D50C11240C945C0C0E94390C70F3F0
:1018F000959FC1F3950F50E0551F629FF001729FB5
:10190000BB27F00DB11D639FAA27F00DB11DAA1FC3
:10191000649F6627B00DA11D661F829F2227B00D10
:10192000A11D621F739FB00DA11D621F839FA00D9B
:10193000611D221F749F3327A00D611D231F849FEB
:10194000600D211D822F762F6A2F11249F57504042
:101950009AF0F1F088234AF0EE0FFF1FBB1F661FBD
:10196000771F881F91505040A9F79E3F510580F086
:101970000C94CF0C0C945C0C5F3FE4F3983ED4F3D2
:10198000869577956795B795F795E7959F5FC1F72A
:10199000FE2B880F911D9695879597F9089597F9D5
:1019A0009F6780E870E060E008959FEF80EC089505
:1019B00000240A941616170618060906089500242E
:1019C0000A9412161306140605060895092E0394A8
:1019D000000C11F4882352F0BB0F40F4BF2B11F41C
:1019E00060FF04C06F5F7F4F8F4F9F4F08950F932D
:1019F0001F93CF93DF938230910510F482E090E043
:101A0000E0918702F091880220E030E0A0E0B0E0B1
:101A1000309719F14081518102811381481759078C
:101A2000C8F08417950769F4109731F012960C935B
:101A3000129713961C9327C0009387021093880275
:101A400022C02115310519F04217530718F49A01E5
:101A5000BD01EF01DF01F801DBCF21153105F9F000
:101A6000281B390B2430310580F48A819B81611554
:101A7000710521F0FB019383828304C09093880257
:101A800080938702FE01329644C0FE01E20FF31FED
:101A90008193919322503109398328833AC0209150
:101AA000850230918602232B41F42091020130916E
:101AB000030130938602209385022091000130912A
:101AC00001012115310541F42DB73EB740910401C4
:101AD00050910501241B350BE0918502F09186029F
:101AE000E217F307A0F42E1B3F0B2817390778F0F5
:101AF000AC014E5F5F4F2417350748F04E0F5F1F54
:101B000050938602409385028193919302C0E0E056
:101B1000F0E0CF01DF91CF911F910F910895CF9306
:101B2000DF93009709F481C0FC013297138212827F
:101B3000A0918702B0918802109781F420813181B1
:101B4000820F931F20918502309186022817390752
:101B500051F5F0938602E093850267C0ED0120E025
:101B600030E0CE17DF0740F44A815B819E014115CA
:101B70005105F1F0EA01F5CFD383C2834081518151
:101B8000840F951FC817D90759F488819981840F4C
:101B9000951F0296918380838A819B8193838283A0
:101BA0002115310529F4F0938802E09387023DC0A6
:101BB000E901FB83EA8349915991C40FD51FEC17C2
:101BC000FD0761F480819181840F951F0296E901E0
:101BD00099838883828193819B838A83E0E0F0E00C
:101BE00012968D919C911397009719F0FD01DC01DD
:101BF000F7CF8D919C9111979D012E5F3F4F820FE2
:101C0000931F20918502309186022817390769F4C5
:101C1000309729F4109288021092870202C0138232
:101C20001282B0938602A0938502DF91CF9108952E
:101C300081E090E0F8940C940711AEE0B0E0E3E2AC
:101C4000FEE00C94DE100D891E8986E08C831A83D9
:101C500009838FEF9FE79E838D83AE01475E5F4FC1
:101C60006F89788DCE0101960E943F0EEF81F88535
:101C7000E00FF11F10822E96E4E00C94FA10ABE016
:101C8000B0E0E5E4FEE00C94D0106C017B018A0129
:101C9000FC0117821682838181FFCCC1CE0101969F
:101CA0003C01F6019381F70193FD859193FF8191AA
:101CB0007F01882309F4BAC1853239F493FD8591F7
:101CC00093FF81917F01853229F4B60190E00E9453
:101CD0003610E7CF912C212C312CFFE1F315D8F0F1
:101CE0008B3279F038F4803279F08332A1F4232DED
:101CF00020611DC08D3261F0803369F4232D216095
:101D000016C0832D8260382EE32DE4603E2E2AC05B
:101D1000F32DF8601DC037FC2DC020ED280F2A30B0
:101D200040F08E32B9F436FC81C1232D2064322E6E
:101D300019C036FE06C08AE0989E200D1124922E0E
:101D400011C0EAE02E9E200D1124222EF32DF06208
:101D50003F2E08C08C3621F4832D8068382E02C0B7
:101D6000883641F4F70193FD859193FF81917F01BE
:101D70008111B3CF982F9F7D9554933028F40C5F39
:101D80001F4F9FE399830DC0833631F0833771F085
:101D9000833509F059C021C0F801808189830E5F25
:101DA0001F4F88248394912C530113C02801F2E023
:101DB0004F0E511CF801A080B18036FE03C0692D82
:101DC00070E002C06FEF7FEFC5010E942B104C0145
:101DD0008201F32DFF773F2E16C0280122E0420E2C
:101DE000511CF801A080B18036FE03C0692D70E05F
:101DF00002C06FEF7FEFC5010E9420104C01F32D50
:101E0000F0683F2E820133FC1BC0822D90E08816C3
:101E10009906B0F4B60180E290E00E9436102A9450
:101E2000F4CFF50137FC859137FE81915F01B60152
:101E300090E00E94361021102A9421E0821A910825
:101E40008114910471F7E8C0843611F0893641F5A8
:101E5000F80137FE07C060817181828193810C5F38
:101E60001F4F08C060817181072E000C880B990BF1
:101E70000E5F1F4FF32DFF763F2E97FF09C0909501
:101E80008095709561957F4F8F4F9F4FF0683F2EE3
:101E90002AE030E0A3010E947210882E861845C007
:101EA000853731F4232D2F7EB22E2AE030E025C075
:101EB000932D997FB92E8F36C1F018F4883579F0BB
:101EC000B5C0803719F0883721F0B0C0E92FE06144
:101ED000BE2EB4FE0DC0FB2DF460BF2E09C034FE33
:101EE0000AC0292F2660B22E06C028E030E005C0C7
:101EF00020E130E002C020E132E0F801B7FE07C087
:101F000060817181828193810C5F1F4F06C0608167
:101F1000718180E090E00E5F1F4FA3010E9472105C
:101F2000882E8618FB2DFF773F2E36FE0DC0232D01
:101F30002E7FA22E891458F434FE0BC032FC09C047
:101F4000832D8E7EA82E05C0B82CA32C03C0B82CE0
:101F500001C0B92CA4FE0FC0FE01E80DF11D808167
:101F6000803321F49A2D997EA92E09C0A2FE06C0C5
:101F7000B394B39404C08A2D867809F0B394A3FC7B
:101F800011C0A0FE06C0B21488F4280C922C9B1835
:101F90000EC0B21460F4B60180E290E00E943610E8
:101FA000B394F7CFB21418F42B1802C0982C212C3C
:101FB000A4FE10C0B60180E390E00E943610A2FE9D
:101FC00017C0A1FC03C088E790E002C088E590E05C
:101FD000B6010CC08A2D867859F0A1FE02C08BE2B2
:101FE00001C080E2A7FC8DE2B60190E00E943610AD
:101FF000891438F4B60180E390E00E9436109A9478
:10200000F7CF8A94F301E80DF11D8081B60190E0CD
:102010000E9436108110F5CF222009F442CEB6017D
:1020200080E290E00E9436102A94F6CFF601868175
:10203000978102C08FEF9FEF2B96E2E10C94EC109A
:10204000FC010590615070400110D8F78095909583
:102050008E0F9F1F0895FC01615070400190011088
:10206000D8F7809590958E0F9F1F08950F931F931B
:10207000CF93DF93FB01238121FD03C08FEF9FEFFF
:102080002CC022FF16C0468157812481358142171A
:10209000530744F4A081B1819D012F5F3F4F3183ED
:1020A00020838C93268137812F5F3F4F3783268390
:1020B00014C08B01EC01FB010084F185E02D099532
:1020C000892BE1F6D80116968D919C911797019670
:1020D00017969C938E931697CE01DF91CF911F9107
:1020E0000F910895FA01AA27283051F1203181F18A
:1020F000E8946F936E7F6E5F7F4F8F4F9F4FAF4F10
:10210000B1E03ED0B4E03CD0670F781F891F9A1F22
:10211000A11D680F791F8A1F911DA11D6A0F711DD6
:10212000811D911DA11D20D009F468943F912AE0E2
:10213000269F11243019305D3193DEF6CF010895CA
:10214000462F4770405D4193B3E00FD0C9F7F6CFFB
:10215000462F4F70405D4A3318F0495D31FD4052C3
:10216000419302D0A9F7EACFB4E0A6959795879559
:1021700077956795BA95C9F7009761057105089538
:102180009B01AC010A2E06945795479537952795E4
:10219000BA95C9F7620F731F841F951FA01D08957C
:1021A0002F923F924F925F926F927F928F929F9267
:1021B000AF92BF92CF92DF92EF92FF920F931F9355
:1021C000CF93DF93CDB7DEB7CA1BDB0B0FB6F89406
:1021D000DEBF0FBECDBF09942A88398848885F8446
:1021E0006E847D848C849B84AA84B984C884DF80B7
:1021F000EE80FD800C811B81AA81B981CE0FD11D9B
:102200000FB6F894DEBF0FBECDBFED01089510E00C
:10221000C2E6D0E004C0FE010E94C00B2196C33686
:08222000D107C9F7F894FFCFC4
:10222800000089022000580165016F0100000000CC
:1022380020018D00B7006D01E800C600DA0000003B
:102248000000B2018D003C02B10102021A0299019C
:1022580000000000B6034102000000007B068D006C
:102268003C023B024F3A2025640A4C3A2025642060
:102278002D20523A2025640053656C6620647269EB
:1022880076696E6700426C7565746F6F7468005488
:0422980065737400F6
:00000001FF
